:100000000C940C030C94781A0C9429030C94290377
:100010000C9429030C9429030C9429030C942903B0
:100020000C9429030C9429030C9429030C942903A0
:100030000C9429030C9429030C9429030C94290390
:100040000C942E1A0C9429030C9429030C94290364
:100050000C9429030C9429030C9429030C94290370
:100060000C9429030C942903200020000FED032198
:10007000534449534B494920434647004E6F205350
:100080004420696E7365727465640046415431366C
:1000900000464154333200547970653A2000436F72
:1000A00064653A2000534420426C6F636B204552D4
:1000B000524F52004D697373696E67204D42522052
:1000C000202000436C7573746572203C2033326BC2
:1000D00042004E6F742046415431362F3332202077
:1000E00000426F6F7420736563746F72202020006C
:1000F00053442063616E277420696E697420005335
:10010000442063616E27742069646C65200045207B
:10011000522052204F2052004E6F726D616C20535E
:1001200044206361726400534448432063617264F5
:1001300020202020200020536F7274696E67206693
:10014000696C6573202E2E2E20202000204E6F74A7
:1001500068696E6720666F756E64206865726521D8
:100160002000204275696C64696E67206C69737445
:10017000002053454C454354204E49432020202025
:1001800020202020202000547261636B3A20002040
:1001900053442053454C4543542044454C41592039
:1001A0002020202000204C434420434F4E545241F5
:1001B00053542020202020202020002056616C75E0
:1001C000653A200020526F74617465206469737011
:1001D0006C6179202020202020002053657420634A
:1001E0006F6E747261737420202020202020200004
:1001F000205365742053442064656C61792020206D
:10020000202020202000202020202020202020200E
:100210002020202020202020202020002053455472
:100220005550202020202020202020202020202069
:100230002000204E49432020202020202020202064
:100240002020202020202000202076657273696FF6
:100250006E20352E352028323032352900202053AB
:100260004449534B205D5B202D2042524153494C61
:1002700000000000000000000000000000000080FE
:10028000C0E0F0F8F83800000000000000000000B6
:10029000000000000000000000000000000000005E
:1002A000000000000000000000000000000000004E
:1002B000000000000000000000000000C0E0F0F0BE
:1002C000F8F8F8F8F8F8F8F0F0F7F7FFFBF9F8F8B5
:1002D000F8F8F8F8F07000000000000000000000DE
:1002E000000000000000000000000000000000000E
:1002F00000000000000000C0E0E00000000000007E
:100300000000000000FFFFFFFFFFFFFFFFFFFFFFF8
:10031000FFFFFFFFFFFFFFFFFFFFFFFFFF83007CEB
:10032000FEFFC7C7C70707FFFF00FFFFFF0787C71D
:10033000C7EFFEFE1800FFFFFF07C7C7C7FFFE7C21
:1003400000FFFFFF007CFEFFC7C7E7F7FFFFDF07E7
:100350001F7FFFFFFFFFFFFFFFFFFFFFFFFFFFFF0D
:10036000FFFFFFFFFFFFFFFFFEFC3801010101005F
:1003700000010100070F0F00010101010000000052
:100380000F0F070001010101000000010101000041
:100390000001010101010101010000000103070F3B
:1003A0001F1F1F1F1F0F0F0F0F0F0F1F1F1F1F1FBD
:1003B0000F07030000000000000000000000000024
:1003C000000000000000000000000000000000002D
:1003D000000000000000000000000000000000001D
:1003E00000000008141C1C1C1C1C1C36636322002B
:1003F00000FFFFF7E3E3F7FFFD0000007432524215
:1004000042424A4C2E00000000000402FF02040099
:100410000000000000002040FF402000000000001D
:10042000002070A82020203F0000000000FE8282F3
:10043000828484FC000000000000000000005F00D7
:10044000000007000700147F147F14242A7F2A125B
:10045000231308646236495522500005030000004A
:100460001C2241000041221C0014083E0814080808
:100470003E080800503000000808080808006060C6
:10048000000020100804023E5149453E00427F40D2
:100490000042615149462141454B311814127F10E9
:1004A00027454545393C4A4949300171090503361C
:1004B00049494936064949291E003636000000568A
:1004C00036000008142241001414141414004122B0
:1004D00014080201510906324979413E7E11111179
:1004E0007E7F494949363E414141227F4141221C9C
:1004F0007F494949417F090909013E4149497A7FBC
:100500000808087F00417F41002040413F017F08EB
:100510001422417F404040407F020C027F7F04084C
:10052000107F3E4141413E7F090909063E4151216C
:100530005E7F09192946464949493101017F010178
:100540003F4040403F1F2040201F3F4038403F6316
:100550001408146307087008076151494543007F78
:1005600041410002040810200041417F00040201C3
:100570000204404040404000010204002054545412
:10058000787F484444383844444420384444487FC1
:100590003854545418087E0901020C5252523E7FBE
:1005A0000804047800447D40002040443D007F1052
:1005B00028440000417F40007C041804787C080433
:1005C000047838444444387C14141408081414186B
:1005D0007C7C080404084854545420043F444020C0
:1005E0003C4040207C1C2040201C3C4030403C448F
:1005F000281028440C5050503C4464544C4400088B
:1006000036410000007F0000004136080010080855
:10061000100800060909060011241FBECFEFD8E01C
:10062000DEBFCDBF11E0A0E0B1E0E2E1FEE302C039
:1006300005900D92A630B107D9F726E0A6E0B1E00B
:1006400001C01D92A83FB207E1F70E9448120C9426
:10065000F91E0C9400000E94131D62E085E20E94C6
:10066000321C8EE091E00E94531D64E086E10E94FE
:10067000321C8CE790E00E94531D4999FECF0895EB
:10068000CF93C82F14B817B81AB815B818B81BB834
:10069000249A2C9A399A3B9A419A17BC14BC81E04F
:1006A00085BD92E095BF9093690010921A01109257
:1006B0001501109216011092130110921901109257
:1006C0001801109214018093170110921B011092CF
:1006D0004D011092120186E591E090934C018093B8
:1006E0004B0180E090E00E94E31E823030F4809362
:1006F0004A01C1110AC0CF91089510924A0161E0E8
:1007000080E090E00E94EB1EF4CF0E94101D8091CB
:100710004A01813011F10E94131D60E080E00E94C7
:10072000321C0E94CE1D66E08DE00E94321C8DE5D9
:1007300092E00E94531D67E087E00E94321C88E42B
:1007400092E00E94531D2FE988E99BE721508040E9
:100750009040E1F700C00000CECF0E94761CDBCFB6
:100760001F93CF93DF93182FD62FC42F67E080E01D
:100770000E94321C86E092E00E94531D67E080E0F8
:100780000E94321C812F90E00E94661D67E08AE380
:100790000E94321C8D2F90E00E94661D67E083E767
:1007A0000E94321C8C2F90E00E94661DDF91CF9139
:1007B0001F910895E82FF92F3097B9F080818115A6
:1007C00069F0853EA1F08F35A1F080858E3411F05F
:1007D00080E008958185893411F080E0089581E0FA
:1007E00092859334D9F380E0089580E0089580E005
:1007F000089580E00895E82FF92F309759F080810F
:10080000811569F0853E41F08F3541F083858295F1
:100810008170089580E0089580E0089580E0089553
:10082000CF92DF92EF92FF920F931F93CF93DF93BC
:100830008FEF9FEF90930101809300010E940917B1
:10084000C62ED72EE82EF92EC114D104E104F104EE
:1008500049F4DF91CF911F910F91FF90EF90DF90BE
:10086000CF90089580E090E00E944E1800E010E0E4
:1008700009C08B858F3099F40F5F1F4F003981E0DD
:10088000180739F3C8010E949F17C82FD92F209746
:1008900099F38881853E69F38111EECFEACF1093F9
:1008A00001010093000160E770E0CE010E94471E45
:1008B00081E08B87FD8AEC8ADB8ECA8E6091DB0635
:1008C0007091DC068091DD069091DE060E9466152F
:1008D000C0CF1F93CF93DF93182FD62FC42F80E163
:1008E000489FA0011124460F511D2091DF06FA01F7
:1008F00002C0F695E7952A95E2F7EE0FFF1FEE0F7F
:10090000FF1FE45EFE4F80819181A281B38120E1CF
:100910002BB91BB82091E8062150330B2423352333
:100920004091EC065091ED066091EE067091EF0655
:10093000420F531F611D711D0297A109B10920913A
:10094000DF0604C0880F991FAA1FBB1F2A95D2F784
:10095000480F591F6A1F7B1F88E10E942F148FEFD9
:100960000E944C138EEF0E944C1380EB90E038E015
:1009700028E23BB92BB901970097D9F71BB883E060
:100980000E944C138CEF0E944C138FEF0E944C136B
:100990008FE30E944C138FEC0E944C1383EF0E9454
:1009A0004C138CEF0E944C138FEF0E944C138FE37B
:1009B0000E944C138FEC0E944C1383EF0E944C1347
:1009C0008CEF0E944C1385ED0E944C138AEA0E9422
:1009D0004C1386E90E944C138FEF0E944C138EEF4C
:1009E0000E944C138C2F86958A6A0E944C138C2F80
:1009F0008A6A0E944C138D2F86958A6A0E944C1336
:100A00008D2F8A6A0E944C13CD278EEFC8278C2F1A
:100A100086958A6A0E944C138C2F8A6A0E944C1316
:100A20008EED0E944C138AEA0E944C138BEE0E94BA
:100A30004C138FEF0E944C138FEF0E944C138FEFDB
:100A40000E944C138FEF0E944C138FEF0E944C13A7
:100A50008EE591E0189FD001199FB00D1124FD0182
:100A6000EA5AFE4FAD54BD4F70E268E058E212C042
:100A70001BB87BB98695215031092115310539F014
:100A8000942F98239115A1F36BB95BB9F3CFEA17B3
:100A9000FB0729F0419128E030E080E8F1CF1BB856
:100AA00080E790E038E028E23BB92BB90197009746
:100AB000D9F71BB880E093E020E21BB82BB901976F
:100AC0000097D9F71BB88FEF0E944C138FEF0E944D
:100AD0004C130E9464130E94931680E18BB91BB8DB
:100AE000DF91CF911F910895CF92DF92EF92FF9205
:100AF0000F931F93CF93DF9389B1C82FC27081FDED
:100B00000BC002E511E026E531E0F80181918F3F4D
:100B100061F4E217F307D1F7DF91CF911F910F91A5
:100B2000FF90EF90DF90CF9008950F2EFEE4CF2E30
:100B3000F1E0DF2EF02D0F2EF6E5EF2EF1E0FF2E87
:100B4000F02DDFEF0EC0F801D293F601D1936F01C3
:100B5000F7011282CF5FF2EAEF1AFEEFFF0AC4300C
:100B600059F0F80161918F016F3F69F3F6014081FF
:100B70008C2F0E946904E7CF10924D0186E591E029
:100B800090934C0180934B01C7CF809118019091B5
:100B9000190180399C40D0F488E08BB9809118010C
:100BA00090911901803140E1940750F438E228E037
:100BB00049990CC03BB92BB9019680319807C1F710
:100BC00080E99CE090931901809318010895499958
:100BD0001FC080914D01482F50E02EE531E0829FEB
:100BE000F001839FF00D1124EA5AFE4F92819D3A45
:100BF00081F080914D012EE531E0829FF001839FCD
:100C0000F00D1124EA5AFE4F9281963909F448C03A
:100C1000089590911201911134C090911A01FA0136
:100C2000EE5AFE4F9083425B5E4F20911B0126954A
:100C30002695FA012083292F2D7F2D3019F09F5FF3
:100C40009F7002C09E5F9F7090931A01833089F05D
:100C50008F5F80934D014EE551E0849F9001859F09
:100C6000300D11242A5A3E4F30934C0120934B01F2
:100C7000C0CF0E94C5050E94740581E080931701D2
:100C8000B8CF8091CE0680931A01109212018F3056
:100C900009F0BECF0E94C50581E080931701A9CF5E
:100CA000829FF001839FF00D1124EA5AFE4F878145
:100CB000880F8A7A90859575892B8093CE0681E07E
:100CC00080931201089584EB92E02CE238E0FC015D
:100CD000EE55F14011928E179F07E1F7825A9E4F11
:100CE00082179307A1F7AEE4B1E08FEF8C93E2E5B2
:100CF000F1E0808311968C931197818312968C93E7
:100D00001297828313968C93838308951F93CF93B6
:100D1000DF93D82F8FEF9FEF909301018093000115
:100D20000E9427145C9889B1182F127081FD2BC086
:100D300086E591E09093D8068093D7060E94C2156D
:100D4000C82F811541F1D1116FC00E94BC18C82F66
:100D5000811509F487C04091E8062091E906309199
:100D6000EA06429FC001439F900D112481159047D0
:100D700008F4C1C0D111DAC05C980E9463060E94D9
:100D80002314C1E003C00E942B03C0E08C2FDF912D
:100D9000CF911F9108950E94131D62E085E20E9489
:100DA000321C8EE091E00E94531D64E086E10E94B7
:100DB000321CE091D006E150E73060F5F0E0E550FC
:100DC000F14E0C94271E8FEF90E00E94531D10925D
:100DD0001501499BFECFDACF80EF90E00E94531DB2
:100DE000F6CF81EE90E00E94531DF1CF82ED90E0AE
:100DF0000E94531DECCF83EC90E00E94531DE7CF7F
:100E000084EB90E00E94531DE2CF85EA90E00E94BF
:100E1000531DDDCF8EE990E00E94531D8091D006D6
:100E200090E00E94191DD3CF0E94131D62E080E064
:100E30000E94321C8091DA06823079F088E191E0DC
:100E40000E94531D5C982FEB85E692E5215080406F
:100E50009040E1F700C0000078CF87E291E00E9467
:100E6000531DF0CF0E94131D62E085E20E94321CE8
:100E70008EE091E00E94531D64E086E10E94321CE6
:100E8000E091D006E150E73060F5F0E0EE5FF04E23
:100E90000C94271E8FEF90E00E94531D10921501B5
:100EA000499BFECF73CF80EF90E00E94531DF6CF99
:100EB00081EE90E00E94531DF1CF82ED90E00E9400
:100EC000531DECCF83EC90E00E94531DE7CF84EBE1
:100ED00090E00E94531DE2CF85EA90E00E94531DEE
:100EE000DDCF8EE990E00E94531D8091D00690E006
:100EF0000E94191DD3CF85E08093D0060E94131D58
:100F000062E085E20E94321C8EE091E00E94531D57
:100F100064E086E10E94321C83EC90E00E94531D45
:100F200010921501499BFECFC12F30CF64E080E0C5
:100F30000E94321C87E990E00E94531D8091EB06CD
:100F40008B3071F08BE890E00E94531D8FEB95E69B
:100F500022E5815090402040E1F700C000000CCF16
:100F600081E990E00E94531DF1CF4F925F926F9202
:100F70007F928F929F92AF92BF92CF92DF92EF9229
:100F8000FF920F931F93CF93DF93082F192F862E75
:100F9000972E80E090E08114910409F4C8C00E946B
:100FA000131D60E080E00E94321C0E94C81D82E395
:100FB00092E00E94531D60E080E60E94321C809106
:100FC000EB068B30C9F08BE890E00E94531D0E9425
:100FD000C81D42E061E080E00E94B00362E080E072
:100FE0000E94321C81E090E00E94661DE4017401C1
:100FF00028E0E20EF11C08C081E990E00E94531D38
:10100000E6CFCE15DF0531F089918032D1F30E9411
:10101000AE1BF7CF10934501009344018091EB067E
:101020008B3009F495C0F401C28CD38CE12CF12CE7
:1010300080E090E0C114D104E104F10409F477C028
:10104000ECE1F1E084E491E011921192119211929D
:10105000E817F907C9F7C0921C01D0921D01E09270
:101060001E01F0921F01C1E026EFC2162FEFD2063B
:10107000E104F104F0F4C701B6010E949A16C62EED
:10108000D72EE82EF92EF6EFCF16FFEFDF06E1049C
:10109000F10450F7EC2FF0E0EE0FFF1FEE0FFF1FF3
:1010A000E45EFE4FC082D182E282F382CF5FCA301B
:1010B000D8F24090E0065090E1066090E206709011
:1010C000E3068091000190910101019609F051C061
:1010D0004092E0065092E1066092E2067092E306CA
:1010E0001092190110921801109216011092140119
:1010F000C1E0C093170110921B0110921A011092C7
:101100004D011092120186E591E090934C0180937D
:101110004B015C9840E052E060E070E080E10E94AA
:1011200080140E946306C093150181E090E0DF9176
:10113000CF911F910F91FF90EF90DF90CF90BF90D4
:10114000AF909F908F907F906F905F904F90089599
:10115000F401C488D588E12CF12C7601DD24CC245F
:10116000828D938DA0E0B0E0C82AD92AEA2AFB2A12
:101170005FCF80E090E00E944E188FEF9FEFDC0180
:101180008093DB069093DC06A093DD06B093DE0629
:1011900080910001909101010E94DD19A82EB92EC5
:1011A0008091EB068B30D9F1F501C28CD38CE12C08
:1011B000F12CC701B6010E94E2190E940715E091C7
:1011C000D706F091D8068DEC92E0ABEAB1E08083CF
:1011D0009183A283B38385819681A781B08584158D
:1011E0009505A605B70561F183879487A587B6871E
:1011F00081859285908B878745825682678270862B
:10120000128701878091D606848380910701818BA4
:10121000C701B6010E94E2190E94661559CFF50177
:10122000C488D588E12CF12C7601DD24CC24828D74
:10123000938DA0E0B0E0C82AD92AEA2AFB2AB9CFC8
:10124000218532852017310779F6D6CFCF92DF92EC
:10125000EF92FF920F931F93CF93DF93C090E0061E
:10126000D090E106E090E206F090E3068091000164
:1012700090910101019689F4C092E006D092E106B6
:10128000E092E206F092E306DF91CF911F910F9179
:10129000FF90EF90DF90CF90089580E090E00E9463
:1012A0004E188FEF9FEFDC018093DB069093DC06F6
:1012B000A093DD06B093DE068091000190910101BC
:1012C0000E94DD19C82FD92F8091EB068B30A9F130
:1012D0006A8D7B8D80E090E00E94E2190E940715E4
:1012E000E091D706F091D8068FEF9FEFDC01809355
:1012F000DB069093DC06A093DD06B093DE068385C3
:101300009485A585B6858093E0069093E106A09329
:10131000E206B093E30607851089C8010E94DD1933
:10132000D82FC92F0E94DA03811509F4A5CF6D2F9C
:101330007C2FC8010E94B507A7CF6C897D8980E00A
:1013400090E0CB01772766270A8D1B8D20E030E0E7
:10135000602B712B822B932BBFCF5E9A2D9A5F9AB5
:101360000895AF92BF92CF92DF92EF92FF920F93C8
:101370001F93CF93DF9380910001909101011FEAA9
:10138000019621F50E94131D60E080E00E94321C4E
:101390000E94C81D85EA91E00E94531D0E94C81D4D
:1013A00043E065E084E00E94B00362E080E00E94D8
:1013B000321C8BEB91E00E94531D812F90E00E9424
:1013C000191DC12ED12FF12CC1E086C080E090E024
:1013D0000E944E1886E591E09093D8068093D70638
:1013E0000E9463061092DB061092DC061092DD0666
:1013F0001092DE0680910001909101010E94DD199A
:10140000C82FD92F8091EB068B30C9F06A8D7B8D68
:1014100080E090E00E94E2190E940715E091D70653
:10142000F091D80680819181A281B3811FEA8D3C21
:101430009240AB4AB14009F0A5CF1189A3CF6C8986
:101440007D8980E090E0CB0177276627CA8CDB8C12
:10145000E12CF12C6C297D298E299F29DBCF62E0BC
:101460008F2D0E94321C8BEB91E00E94531D8D2F1B
:1014700090E00E94191D8AE690E00E94531D30C042
:1014800099B188271D9983958C2782238111F8CFE4
:101490009038990B919593239111F2CF8FEB9AE7A6
:1014A000E0E181509040E040E1F700C00000DD2421
:1014B000DA94DD0ED09207018D2D0E94A01B2BC067
:1014C000211138C09038990B91959423911132C015
:1014D000CD2E4E9B4EC0DD2D0E94AD09DC11BFCF3D
:1014E000499954C099B140914A013C2F41113F2D77
:1014F00083B12C2F413009F02F2D85FB882780F9EF
:101500008C2782238111BCCF9038990B919593231E
:10151000DD2E9111B5CF83B130914A0199B14C2F95
:10152000313009F04F2D8072832B2C2F811541F221
:101530002F2DC6CF83B199B18072832B2C2F8111AF
:101540002F2D2111F7CF9038990B9195942391115C
:10155000F1CFFFEB2AE780E1F15020408040E1F736
:1015600000C00000D394D09207018D2D0E94A01BD3
:10157000AFCF4E9BFECF9FEBEAE7F0E19150E0400A
:10158000F040E1F700C000001D110BC0DF91CF91CA
:101590001F910F91FF90EF90DF90CF90BF90AF9091
:1015A0000895D09207018D2D0E94A01B5C98809118
:1015B000000190910101019649F380E090E00E94C2
:1015C0004E1886E591E09093D8068093D7060E9446
:1015D00063061092DB061092DC061092DD06109274
:1015E000DE0680910001909101010E94DD19A82E74
:1015F000B92E8091EB068B3009F1F501E28CF38C6A
:1016000000E010E0C801B7010E94E2190E9407152E
:10161000E091D706F091D80680819181A281B381B3
:101620008D3C9240AB4AB14009F0B0CFD18AC8019D
:10163000B7010E94E2190E946615A8CFF5018489BE
:101640009589A0E0B0E0DC0199278827428D538D71
:1016500060E070E07C018D01E42AF52A062B172B4F
:10166000D1CFAF92BF92CF92DF92EF92FF921F93B2
:10167000CF93DF930E94131D60E080E00E94321C34
:101680000E94C81D8FE891E00E94531D0E94C81D52
:1016900043E065E084E00E94B00363E080E00E94E4
:1016A000321C8BEB91E00E94531D8091D60690E096
:1016B0000E94191DE090D606FE2CD0E0C1E01AE091
:1016C00040C063E08D2F0E94321C8BEB91E00E94A2
:1016D000531D8091D60690E00E94191D88E690E087
:1016E0000E94531DF090D60632C099B188271D99EB
:1016F00083958C2782238111F8CF9038990B91958F
:1017000093239111F2CF2FEB8AE790E12150804093
:101710009040E1F700C000008091D606815081150D
:1017200019F08093D6062DC01093D6062AC0211139
:1017300037C09038990B91959423911131C04E9BED
:1017400052C00E94AD098091D6068F11BACF499937
:101750005FC099B140914A013C2F41113D2F83B1A7
:101760002C2F413009F02D2F85FB882780F98C27FD
:1017700082238111BACF9038990B919593239111BF
:10178000B4CF83B130914A0199B14C2F313009F077
:101790004D2F8072832B2C2F811549F22D2FC7CF0F
:1017A00083B199B18072832B2C2F81112D2F2111A0
:1017B000F7CF9038990B919594239111F1CFEFEBDE
:1017C000FAE720E1E150F0402040E1F700C00000DE
:1017D0008091D6068F5F8B3018F48093D606AFCFFA
:1017E000C093D606ACCF4E9BFECF8FEB9AE7E0E1DD
:1017F00081509040E040E1F700C000008091D606A3
:101800008E1531F08091000190910101019651F403
:10181000DF91CF911F91FF90EF90DF90CF90BF901D
:10182000AF90089580E090E00E944E1886E591E028
:101830009093D8068093D7060E9463061092DB0629
:101840001092DC061092DD061092DE0680910001F7
:10185000909101010E94DD19A82EB92E8091EB060E
:101860008B3019F1F501C28CD38CE12CF12CC7011E
:10187000B6010E94E2190E940715E091D706F09187
:10188000D80680819181A281B3818D3C9240AB4A80
:10189000B14009F0BDCF8091D6068483C701B6015F
:1018A0000E94E2190E946615B3CFF501C488D5885D
:1018B000E12CF12C7601DD24CC24828D938DA0E0E7
:1018C000B0E0C82AD92AEA2AFB2AD1CF1F93CF93A6
:1018D000DF930E94131D60E080E00E94321C0E9492
:1018E000C81D8CE192E00E94531D0E94C81D43E078
:1018F00065E084E00E94B00362E080E00E94321C58
:101900000E94C51D80EF91E00E94531D0E94C51DDD
:1019100063E080E00E94321C8AED91E00E94531D3A
:1019200064E080E00E94321C84EC91E00E94531D30
:1019300011E0C1E0D0E075C099B188271D99839569
:101940008C2782238111F8CF9038990B919593239E
:101950009111F2CF2FEB8AE790E121508040904027
:10196000E1F700C000001F5F143008F04EC01130D6
:10197000E9F062E080E00E94321C80EF91E00E947A
:10198000531D123041F163E080E00E94321C8AED69
:1019900091E00E94531D133059F164E080E00E94F1
:1019A000321C84EC91E00E94531D55C00E94C51D5D
:1019B00062E080E00E94321C80EF91E00E94531DA3
:1019C0000E94C51D63E080E00E94321C8AED91E018
:1019D0000E94531DE2CF0E94C51D63E080E00E947B
:1019E000321C8AED91E00E94531D0E94C51DD5CF87
:1019F0000E94C51D64E080E00E94321C84EC91E0EE
:101A00000E94531D0E94C51D26C013E024C0211151
:101A100031C09038990B9195942391112BC04E9B16
:101A200095C00E94AD0999B140914A013C2F4111E6
:101A30003D2F83B12C2F413009F02D2F85FB8827B6
:101A400080F98C278223811177CF9038990B91955B
:101A50009323911171CF83B130914A0199B14C2FE9
:101A6000313009F04D2F8072832B2C2F811579F2A4
:101A70002D2FCDCF83B199B18072832B2C2F811163
:101A80002D2F2111F7CF9038990B91959423911117
:101A9000F1CF2FEB8AE790E1215080409040E1F7B1
:101AA00000C000001150111509F44EC01130E9F0CA
:101AB00062E080E00E94321C80EF91E00E94531DA2
:101AC000123041F163E080E00E94321C8AED91E027
:101AD0000E94531D133059F164E080E00E94321CD3
:101AE00084EC91E00E94531D9ACF0E94C51D62E0D4
:101AF00080E00E94321C80EF91E00E94531D0E9402
:101B0000C51D63E080E00E94321C8AED91E00E94D6
:101B1000531DE2CF0E94C51D63E080E00E94321C8D
:101B20008AED91E00E94531D0E94C51DD5CF0E94F1
:101B3000C51D64E080E00E94321C84EC91E00E94AC
:101B4000531D0E94C51D6BCF11E069CF4E9BFECF88
:101B50002FEB8AE790E1215080409040E1F700C0F0
:101B60000000113041F0123049F0133051F0DF9194
:101B7000CF911F9108950E94310BF9CF0E94B109B6
:101B8000F6CF80914A0181110CC081E080934A0117
:101B90000E94761C60914A0180E090E00E94EB1E5A
:101BA000E6CF10924A010E94811CF4CF7F928F925F
:101BB0009F92AF92BF92CF92DF92EF92FF920F93DC
:101BC0001F93CF93DF93CDB7DEB728970FB6F89466
:101BD000DEBF0FBECDBF109247011092460186E5D1
:101BE00091E09093D8068093D70682E194E0909399
:101BF0004901809348018FEF9FEFDC018093DB0662
:101C00009093DC06A093DD06B093DE060E94630687
:101C10000E94C81D60E080E00E94321C81E791E0D4
:101C20000E94531D0E94C81D43E065E084E00E94AD
:101C3000B003FF24F3946F2D80E00E94321C86E0F5
:101C400092E00E94531DF39426E0F212F4CF63E079
:101C500080E00E94321C82E691E00E94531DE12C3C
:101C6000F12C26C08091460190914701880F991F61
:101C7000E0914801F0914901E80FF91FF182E082FB
:101C8000809146019091470101969093470180937E
:101C90004601BFEFEB1AFB0A809146019091470184
:101CA000883C9105F4F5E0E9EE16E1E0FE06B9F0B6
:101CB000C7010E94DD19082F192F0115110521F008
:101CC000D8018C91811559F0C8010E94DA03811165
:101CD000C9CFC8010E94FB038115D9F2C3CF8091FF
:101CE000460190914701892BE1F463E080E00E9476
:101CF000321C8CE491E00E94531D28960FB6F89494
:101D0000DEBF0FBECDBFDF91CF911F910F91FF902E
:101D1000EF90DF90CF90BF90AF909F908F907F908B
:101D2000089563E080E00E94321C86E391E00E9407
:101D3000531D8091460190914701C12CD12C0297EF
:101D40000CF073C040914601509147014115510577
:101D500009F00CF484C06091440170914501E09158
:101D60004801F091490100E010E080E090E070C08F
:101D70008091480190914901FC01E00FF11F208101
:101D80003181880D991DDC018D919C919183808317
:101D9000E0914801F0914901E80DF91D318320835C
:101DA000BFEFEB1AFB0A0E5F1F4F80914601909127
:101DB00047018C199D09E816F9065CF5E091480188
:101DC000F0914901E00FF11F808191810E94DD199E
:101DD000682F792F48E050E0CE0101960E94691EDD
:101DE0004801F2E08F1A9108E0914801F091490111
:101DF000E80DF91D808191810E94DD19682F792FEE
:101E000048E050E0CE0101960E945C1E992344F602
:101E1000AFCFEFEFCE1ADE0A8091460190914701D5
:101E20000197C816D9060CF08DCF8091460190918C
:101E300047018C199D0902E010E0EE24E394F12C97
:101E400002970CF0BBCFE5CF01968417950749F0B8
:101E50002191319126173707B9F78C01F5CF00E0B2
:101E600010E0EE24EA94FE2CDD24D394712C34C0CF
:101E7000780131C099B188271D9983958D258223DA
:101E80008111F8CF9038990B919593239111F2CF4E
:101E90002FEB8AE790E1215080409040E1F700C0AD
:101EA00000000F5F1F4F80914601909147018017FE
:101EB000910791F500E010E02FC021113DC090384E
:101EC000990B91959423911137C04E9B59C00E15D3
:101ED0001F0509F086C087010E94AD0989B1F82F5E
:101EE000F270CF2E81FD09CF99B140914A013D2D6D
:101EF0004111372D83B12D2D413009F0272D85FB60
:101F0000882780F98D2582238111B4CF9038990BD1
:101F1000919593239111AECF83B130914A0199B13C
:101F20004D2D313009F0472D8072832B2D2D8115D9
:101F300009F4C3CF272DC1CF83B199B18072832B10
:101F40002D2D8111272D2111F7CF9038990B9195C7
:101F500094239111F1CFAFEBBAE7E0E1A150B0408B
:101F6000E040E1F700C000000150110911230CF01E
:101F7000ACCF009146011091470101501109A5CF46
:101F80004E9BFECFFFEB2AE780E1F15020408040DE
:101F9000E1F700C00000000F111FE0914801F0912F
:101FA0004901E00FF11F808191810E94DD19F82E17
:101FB000E92E0E94FB03811539F08F2D9E2D0E9482
:101FC0004E180E94D60D99CEE0914801F09149013A
:101FD000E00FF11F6F2D7E2D808191810E94B5074A
:101FE0008CCEE0914801F0914901C801880F991FFA
:101FF000E80FF91F808191810E94DD19A82EB92E6A
:1020000063E0872D0E94321CC5010E94FB038115ED
:1020100049F086E090E00E94661D7501D501189692
:102020004D0108C081E090E00E94661DF6CF8E143D
:102030009F0449F0F70181917F018032C1F30E9432
:10204000AE1BC394F4CFEC2CF12CF0E1EF16F104AD
:102050000CF00ECF80E20E94AE1B2FEFE21AF20AC4
:1020600080E1E816F104B1F7780135CF8F929F92A5
:10207000AF92BF92CF92DF92EF92FF920F931F9396
:10208000CF93DF9386E591E09093D8068093D706AF
:102090008FEF9FEFDC018093DB069093DC06A0932B
:1020A000DD06B093DE0680E090E00E944E188FEFD0
:1020B0009FEF9093010180930001EE24EA94FE2C9F
:1020C00000E010E033C0780146C06C897D8980E073
:1020D00090E0CB01772766278A8C9B8CA12CB12CB2
:1020E000682979298A299B290E94E2190E940715EB
:1020F000A090D706B090D806F50180819181A28189
:10210000B3818D3C9240AB4AB140E1F180E090E078
:102110000E944E18FFEFEF16FF0609F065C00F5F33
:102120001F4F003921E0120709F45AC0C8010E946C
:10213000DD19C82FD92F209791F38881811509F4D3
:102140004FC0CE010E94DA03811529F02FEFE2166D
:10215000F20609F4B8CF4BE050E060E770E0CE0142
:102160000E944E1E892BD9F61093010100930001A5
:102170008091EB068B3009F4A8CF6A8D7B8D80E0CF
:1021800090E0B2CFF50184818093D6068189809357
:1021900007010E94A01B5C98F50185819681A781AB
:1021A000B0858093E0069093E106A093E206B09399
:1021B000E3069184B284892D9B2D0E94DD19C82EDF
:1021C000D92EC114D10429F1C6010E94DA0381116C
:1021D00005C080E090E00E944E1898CFE92CFB2CBF
:1021E0008FEFE816F806D1F0C7010E94DD19682FBD
:1021F000792FC7010E94B507DF91CF911F910F91F1
:10220000FF90EF90DF90CF90BF90AF909F908F9016
:10221000089580E090E00E944E1878CFF8940E94D4
:10222000D60D4999E9CF80911501811531F0EEE67F
:10223000F0E0808181608083E89A7894DDCF0E940D
:10224000AD09499B14C08FEF90E0499BA7C001974F
:102250000097D9F7EEE6F0E080818E7F8083E898E2
:1022600010921501109217010E942B03089586B158
:10227000982F917080FF29C04E9B44C029B13091A6
:102280004A0183B141E0313009F040E0002485FF8C
:102290000394802D8423811135C02038220B219591
:1022A00081E0311180E0282321112CC083B129B1B4
:1022B0008072832B31E0811130E0311123C020384E
:1022C000220B2195242321111DC08091150181111C
:1022D00065C08FEF90E0499961C001970097D9F7E9
:1022E000F89481E00E9486068111CFC0809115018B
:1022F000811531F0EEE6F0E0808181608083E89A1C
:10230000789408954E9923C024E630E041E0882770
:102310004E99839584279823215031092115310541
:10232000B1F7911509F43AC04E9BFECFF8940E9484
:10233000D60D499933C080911501811531F0EEE633
:10234000F0E0808181608083E89A7894089529B1D3
:1023500070914A0131E0711130E083B161E0713078
:1023600009F060E0002485FF0394802D862381110D
:1023700016C02038220B21952323211110C083B1D0
:1023800029B18072872B31E0811130E031113FC0DB
:102390002038220B21952623211139C0089544E6C7
:1023A00050E071E029B188271D99839587278623FE
:1023B0002038220B21952323822B98234150510949
:1023C0004115510579F7911549F321E099B1882715
:1023D0001D998395822786238111F8CF9038990B18
:1023E000919593239111F2CFF8940E94660C49992C
:1023F000D5CF0E94361080911501811531F0EEE69F
:10240000F0E0808181608083E89A7894089544E6C2
:1024100050E0E1E0F0E00BC08038880B8195862326
:10242000382B9323415051094115510549F023B1EF
:1024300089B12072272B3E2F211571F33F2FECCF4E
:10244000911509F4ABCF31E040E083B199B18072CE
:10245000872B232F8111242F2111F7CF9038990B2F
:10246000919596239111F1CFF8940E9426094999EC
:1024700095CF80911501811531F0EEE6F0E0808175
:1024800081608083E89A789408950E9436102ECF58
:1024900081E00E9440038FEF80930801C6E5D1E000
:1024A0000BE86894EE24E1F80F2EF6E0FF2EF02DF5
:1024B00002C00E9491160E941F1186B1182F117040
:1024C00080FDF7CF0E948E1683B18F709091CF065A
:1024D000891731F18093CF06843059F030F4813080
:1024E00049F01F2D823031F01BC01E2D883011F0B5
:1024F00017C0182F80911B01982F910FE92FE69597
:10250000E370F0E0E459FF4FE49190FF53C0EF70A7
:10251000E3FDE86F8E0F853C08F44FC010921B015D
:1025200080911501811539F280911701811519F2F9
:10253000F89420911A012F5F2F7020931A01309187
:102540001B01369536953093110140E1349FC0014F
:102550001124820F911D9093100180930F012091FF
:10256000DF0602C0969587952A95E2F790930E01B3
:1025700080930D01880F991F880F991FFC01E45E5D
:10258000FE4F80819181A281B38180930901909354
:102590000A01A0930B01B0930C018091080138133C
:1025A00014C090911A0120911101E2E5F1E0AEE42E
:1025B000B1E028C0E295EF70ABCF8C3818F00093F3
:1025C0001B01AECF80931B01ABCF3093080164E0B9
:1025D0008CE00E94321C87E891E00E94531D80919C
:1025E00011018A3030F08091110190E00E94191D94
:1025F000D8CF83E091E00E94161DF5CF1196EC171D
:10260000FD0741F081918913F9CF8C918213F6CFA8
:102610000E9474058091090190910A01A0910B011B
:10262000B0910C01BC01CD01625071098109910981
:102630002091DF0604C0660F771F881F991F2A9517
:10264000D2F78090EC069090ED06A090EE06B09048
:10265000EF06680D791D8A1D9B1D4091E8064150CB
:10266000550B20910F013091100124233523620F67
:10267000731F811D911D0E94661410921901109202
:10268000180110921701789416CF549A539A559ABC
:1026900050981092D106089528E030E090E870E25A
:1026A00068E058E208C01BB87BB996952150310903
:1026B0002115310539F0482F49234115A1F36BB994
:1026C0005BB9F3CF1BB80895CF93DF930F92CDB7CB
:1026D000DEB788E08BB919828981883099F080E073
:1026E00038E228E03BB999B1880F9170892B2BB95A
:1026F00099819F5F998399819830A1F70F90DF911D
:10270000CF91089580E0FACF88E38BB988E18BB947
:10271000089528E100002A95E9F70197D1F7089577
:102720000895DF92EF92FF920F931F93CF93DF9361
:10273000D82F08E010E0C0E86894DD24D5F868944C
:10274000EE24E3F80F2EF8E2FF2EF02D0CC01BB89C
:1027500081E090E00E948913DBB8C6950150110911
:102760000115110559F09D2F9C23911581F3EBB8AC
:1027700081E090E00E948913FBB8EFCF81E090E008
:102780000E9489131BB8DF91CF911F910F91FF9089
:10279000EF90DF9008959091D106911104C00E94AE
:1027A000911380E008950E944C13FBCFFF920F938A
:1027B0001F93CF93DF930F92CDB7DEB788E08BB92D
:1027C00081E090E00E94891319828981883011F19B
:1027D00010E00F2EF8E2FF2EF02D08E0FBB881E0AC
:1027E00090E00E94891389B1110F8170182B0BB9E9
:1027F00081E090E00E94891389818F5F89838981BC
:10280000883061F7812F0F90DF91CF911F910F9149
:10281000FF90089510E0F6CF8091D106811103C09A
:102820000E94D61308950E946413089588E38BB91B
:1028300081E090E00E94891388E18BB981E090E00B
:102840000E948913089581E08093D1060895109223
:10285000D10608950E9464138115E4F30895CF9280
:10286000DF92EF92FF92CF93C82F8091D2066A0138
:102870007B0104C0CC0CDD1CEE1CFF1C8A95D2F73A
:102880008FEF0E944C138C2F80640E944C138F2D6D
:102890000E944C138E2D0E944C138D2D0E944C13C0
:1028A0008C2D0E944C1385E90E944C138FEF0E94DF
:1028B0004C130E942A148093D40681508E3FC8F393
:1028C000CF91FF90EF90DF90CF900895462F572F34
:1028D000682F792F2091D606211579F021502111EA
:1028E000FDCF1092D30681E10E942F140E94641341
:1028F0008093D5068E3FD1F708952093D306F3CF6A
:10290000CF92DF92EF92FF921F93CF93DF93182F16
:10291000C42ED52EE62EF72E8091D90681110CC03B
:102920008FEE810F823008F188EE810F8230E8F05F
:1029300080EE810F8230C8F08FEF0E94CB13812F81
:1029400080640E94CB138F2D0E94CB138E2D0E948A
:10295000CB138D2D0E94CB138C2D0E94CB131830DE
:1029600001F587E80E94CB131FC00B2EB9E0CC0CF9
:10297000DD1CEE1CFF1CBA95D1F7B02D8FEF0E9425
:10298000CB13812F80640E94CB138F2D0E94CB1319
:102990008E2D0E94CB138D2D0E94CB1380E00E94C0
:1029A000CB1385E90E94CB13D0E00E940C14C82FF2
:1029B0008F3F21F4D150D111F8CF04C0811102C052
:1029C0001A3359F00E940C148C2FDF91CF911F9174
:1029D000FF90EF90DF90CF9008950E940C1410921A
:1029E000D20686FF0DC081E08093D90682E08093F5
:1029F000DA060E940C140E940C140E940C14E2CF00
:102A00001092D90689E08093D20681E0F0CFCF9270
:102A1000DF92EF92FF920F931F93CF93DF93C62E17
:102A2000D72EE82EF92E8091DB069091DC06A0913E
:102A3000DD06B091DE0611E08C159D05AE05BF05E3
:102A4000D9F1C092DB06D092DC06E092DD06F0926E
:102A5000DE065C988FEF0E94CB138FEF0E94CB13A2
:102A6000B701A60181E10E948014182FC0E0D0E0D8
:102A7000811122C00E940C148E3F29F021972097CB
:102A8000C9F75C9A19C0C0E0D0E00091D706109158
:102A9000D8060C0F1D1F0E940C14F801808321968C
:102AA000C115F2E0DF0789F70E940C140E940C1494
:102AB0000E940C145C9A11E0812FDF91CF911F913D
:102AC0000F91FF90EF90DF90CF900895CF93DF9319
:102AD000462F572F682F792F88E10E948014811587
:102AE00019F0DF91CF9108955C988EEF0E94CB137F
:102AF000C0E0D0E0E091D706F091D806EC0FFD1FC2
:102B000080810E94CB132196C11582E0D80791F7EE
:102B10008FEF0E94CB138FEF0E94CB130E940C14F7
:102B2000982F9F71953021F05C9ADBCF5C9AD9CFBA
:102B3000C0E0D0E00E940C14811107C09E012F5FFD
:102B40003F4F219699F3E901F5CF5C9A8FEF0E94F0
:102B5000CB135C980E940C14811109C09E012F5F59
:102B60003F4F219611F0E901F5CF5C9ABACF5C9AFC
:102B700081E0B7CF462F572F682F792F80E10E9431
:102B800080140895CF92DF92EF92FF920F931F93DC
:102B9000CF93DF931092D00685E08093D6060E94F3
:102BA00045130E942714C0E0499B0AC08C2FDF9177
:102BB000CF911F910F91FF90EF90DF90CF900895EC
:102BC00080E185B95C9A8FE097E2A0E0B0E0809365
:102BD000DB069093DC06A093DD06B093DE06C4E628
:102BE0000E941614C150C111FBCF5C98DCE08FEF3E
:102BF0000E94CB13D150D111FACF00E018E040E091
:102C000050E0BA0180E00E948014C82F01501109E1
:102C10000115110509F1813091F7DCE08FEF0E9479
:102C2000CB13D150D111FACF01E012E04AEA51E0C2
:102C300060E070E088E00E9480148A3AA1F0813060
:102C400009F44CC0015011090115110579F78D2FB8
:102C5000C12CD12C76010DC015B85C9A81E080930F
:102C6000D006CD2FA3CF8C2FC12CD12C7601689408
:102C7000F6F88093DA06DCE08FEF0E94CB13D15098
:102C8000D111FACF01E012E040E050E0BA0187E351
:102C90000E948014B701A60189E20E9480140150AD
:102CA00011090115110501F18111EECF1092D9061C
:102CB00089E08093D2068091DA068130E1F040E02D
:102CC00050E0BA018BE30E94801460E072E080E083
:102CD00090E00E94BA1515B85C9A68CFC12CD12C2F
:102CE00076016894F6F8C5CF82E08093D00615B8D7
:102CF0005C9ACD2F5BCF05E610E08FEF0E94CB13DF
:102D000040E050E0BA018AE30E94801401501109AA
:102D100001151105A1F28111F0CFD1CF80E185B964
:102D2000089515B808950E946413499902C08F3F11
:102D3000D1F708954F925F926F927F928F929F92F8
:102D4000AF92BF92CF92DF92EF92FF92CF93C62EB7
:102D5000D72EE82EF92E8091EB06863009F452C06A
:102D60000F2E44244A94542C642CFFE07F2EF02D27
:102D700082E0A701960104C0220F331F441F551F94
:102D80008A95D2F7CA01B9012091E9063091EA0685
:102D900040E050E00E94051E4B015C01C090F0062F
:102DA000D090F106E090F206F090F306C20ED31E2A
:102DB000E41EF51ECAE0C701B6010E940715811581
:102DC00019F0C150C111F7CFE091D706F091D806A4
:102DD000E80DF91D80819181A281B381BC01CD01F3
:102DE0006421752186219721CF91FF90EF90DF908C
:102DF000CF90BF90AF909F908F907F906F905F909B
:102E00004F90089544244A94542C612C712C81E0F5
:102E1000B0CF4F925F926F927F928F929F92AF92BC
:102E2000BF92CF92DF92EF92FF92CF930F2EF8EEE8
:102E30008F2EF3E09F2EA12CB12CF02DC501B401F3
:102E40000E949A16C62ED72EE82EF92EC114D10450
:102E5000E104F10491F030EA831636E8930631E09C
:102E6000A306B10431F02FEF821A920AA20AB20A25
:102E7000E5CF812C912C54014DC040EA841646E8E0
:102E8000940641E0A406B10409F456C08091EB0613
:102E9000863009F44FC082E0A501940104C0220FDE
:102EA000331F441F551F8A95D2F7CA01B9012091DB
:102EB000E9063091EA0640E050E00E94051E2B0131
:102EC0003C01C090F006D090F106E090F206F09040
:102ED000F306C20ED31EE41EF51ECAE0C701B601FA
:102EE0000E940715811519F0C150C111F7CF6091EB
:102EF000D7067091D806640D751D8FEF90E0A0E0A5
:102F0000B0E0FB0180839183A283B383C701B60144
:102F10000E946615C501B401CF91FF90EF90DF903C
:102F2000CF90BF90AF909F908F907F906F905F9069
:102F30004F90089581E0B0CF46015701EBCF6F92DB
:102F40007F928F929F92AF92BF92CF92DF92EF9239
:102F5000FF920F931F93CF93DF938C01000F111FEC
:102F600002951295107F1027007F10276801CD2C45
:102F7000DD24C6942091E806E22FF0E0C601BF01EF
:102F80000E94F11D3B017B018091E0069091E106DA
:102F9000A091E206B091E306CE16DF0608F446C023
:102FA0003091EB06363009F468C08090EC069090C2
:102FB000ED06A090EE06B090EF06BC01CD016819B9
:102FC00079098A099B0930E040E050E00E94051E23
:102FD00049015A0182E0880E911CA11CB11CC0E07D
:102FE000D0E0C501B4010E949A16862E972EA82E15
:102FF000B92E2196CE15DF05A0F3A501940122502C
:10300000310941095109A091E806B0E00E943C1E37
:103010008090EC069090ED06A090EE06B090EF0642
:10302000DC01CB01880D991DAA1DBB1D4091E8064E
:10303000469D9001479D300D1124C21AD30ABC0150
:10304000CD016C0D7D1D811D911D0E940715117014
:103050008091D7069091D806800F911FDF91CF9174
:103060001F910F91FF90EF90DF90CF90BF90AF90A6
:103070009F908F907F906F9008958090E40690903D
:10308000E506A090E606B090E70688169906AA061F
:10309000BB0609F08ACF80E090E0E0CF0F931F934A
:1030A000E82FF92F309729F19385892F807194FFAC
:1030B0001DC08091EB068B3071F1828D938DA0E065
:1030C000B0E00097A105B105B1F58091E4069091BB
:1030D000E506A091E606B091E7068093E00690939E
:1030E000E106A093E206B093E30681E01F910F9101
:1030F00008958091E4069091E506A091E606B091CE
:10310000E7068093E0069093E106A093E206B09371
:10311000E30681E0EBCF84899589A0E0B0E0DC0193
:1031200099278827428D538D60E070E0842B952B82
:10313000A62BB72BC6CF9C01AD0122503109410906
:103140005109A091E806B0E00E943C1E0091EC06F7
:103150001091ED062091EE063091EF06060F171F35
:10316000281F391F0093E0061093E1062093E20622
:103170003093E30681E0BACFCF92DF92EF92FF92D5
:10318000CF9360E070E0CB010E940715E091D70675
:10319000F091D80680818D7F893E81F1DF01A250B8
:1031A000BE4F8D919C9185359A4A29F086E0809397
:1031B000D00680E09DC0E254FE4F84818093EB06F0
:1031C00060857185828593850E940715E091D706F9
:1031D000F091D80680818D7F893E29F083E080932D
:1031E000D00680E085C08091EB068B3039F08630C8
:1031F00029F084E08093D00680E07AC0A091D706C1
:10320000B091D806438554855093EA064093E90669
:10321000C585C093E80686859785C48CD58CE68CD9
:10322000F78CC80ED91EE11CF11CC092F006D0929A
:10323000F106E092F206F092F3068091EB068630FA
:1032400009F45CC0408994962D913C919597429FDA
:10325000C001439F900D1124C80ED91EE11CF11C22
:10326000C092EC06D092ED06E092EE06F092EF06E8
:103270009C968D919D910D90BC91A02D9C01AD01CE
:103280002250310941095109AC2FB0E00E943C1E87
:10329000C60ED71EE81EF91EC092E406D092E506BF
:1032A000E092E606F092E7068C2F90E021E0C13034
:1032B00009F450C096958795322F2F5F8130910584
:1032C000C9F73093DF068091E4069091E506A0915E
:1032D000E606B091E7068093E0069093E106A0939E
:1032E000E206B093E30680E090E00E944E1881E091
:1032F000CF91FF90EF90DF90CF9008952089A6891D
:10330000B78930E00E942D1EC60ED71EE81EF91E9A
:10331000C092E406D092E506E092E606F092E70657
:1033200081899289880F991F82959295907F98271D
:10333000807F9827BA010E94F11DC60ED71EE11C9E
:10334000F11CC092EC06D092ED06E092EE06F092EF
:10335000EF06AACF1092DF06B6CFE82FF92F3097ED
:10336000C9F080818115B9F0853EC1F08E3261F0DF
:103370008530B9F083858E31B9F08F30C1F0883255
:10338000C9F08E2F9F2F089581818E3299F380E0AE
:1033900090E00895089580E090E0089580E090E046
:1033A000089580E090E0089580E090E0089580E046
:1033B00090E0089580E090E008950E949F170E9499
:1033C000AD1908950F931F939B01AC012250310951
:1033D00041095109A091E806B0E00E943C1E00910D
:1033E000EC061091ED062091EE063091EF06600F8D
:1033F000711F821F931F1F910F9108950F931F93A9
:103400000091EC061091ED062091EE063091EF064A
:10341000601B710B820B930B2091E80630E040E0BB
:1034200050E00E94051ECA01B9016E5F7F4F8F4FA9
:103430009F4F1F910F9108950000000000000000B1
:1034400000000000000000000895000000000000DF
:1034500000002091D6062A95F1F70895AF93AFB7F3
:10346000AF93BF932F93A091160120911301A22B2C
:10347000A8B9AAEAA6BD20E0E8DFA0911301A8B987
:10348000B0911701BB2341F0209316012F91BF91FA
:10349000AF91AFBFAF911895A8E2ABB9A9B1A17038
:1034A000AA0F2A2FA8E0ABB9A0911801B091190179
:1034B0001196A0931801B0931901A03989F4BC307A
:1034C00079F4A1E0A0931701CF93C0E7A8E0B8E298
:1034D000BBB9B8E0BBB9AA95D1F7CA95B9F7CF91F6
:1034E000209316012F91BF91AF91AFBFAF91189567
:1034F0002F932FB72F9330995AC03F9330911401D7
:1035000026B124702327E1F326B1247020931401FF
:1035100028E02A95F1F700004F935F936F937F9314
:103520008F93EF93FF9360E0E0914B01F0914C019A
:103530003DE541E00DC05091140176B174707527DE
:10354000E1F376B17470709314017EE07A95F1F72F
:1035500027E081E079B17470D1F400007EE17A95C2
:10356000F1F776B1747050911401709314017527BE
:1035700076957695880F872B2A9561F7853D09F416
:1035800061E06030C1F2819331504040A1F69F93D9
:10359000AF93BF930E94E705BF91AF919F91FF91B9
:1035A000EF918F917F916F915F914F913F912F910B
:1035B0002FBF2F91189596E09A95F1F708950895E9
:1035C000359BFECFA894089508953C983D98449863
:1035D000459888279927349B0895359B089581E065
:1035E000089581E00895359BEBDF3C9AE4DF2AD013
:1035F000089581E008953D9ADEDF3C98DCDF3D9838
:10360000DADF359BDDDF3C9AD6DF1CD0089581E000
:1036100008958F938F918F93359BD2DF3C9ACBDFA8
:1036200011D0882311F404D0F5CF0F900895089598
:103630003D9A3C9AC0DF3D98BEDF359BC1DF3C9888
:10364000BADF08950894881F01C0880FB9F03D9A29
:1036500000000000000018F400003C9802C03C9AF2
:1036600000C0A9DF3D98A894000000000000359B31
:10367000A7DF12F4882712C09EDFE7CF3D9A000033
:1036800000003C9898DF992788273D98A89400006F
:10369000359B96DF7AF3349B81E08DDF00000000DC
:1036A0003D9A089581E0089571E03D9A3C980000AC
:1036B0000000000080DF3D987EDFA894000000003D
:1036C0000000359B7DDFB2F0889434990894771F11
:1036D00060F73D9A803011F03C9801C03C9A0000A0
:1036E0000000000068DF3D98A89400000000359BB2
:1036F00067DF61DF000000003D9A872F992708955A
:1037000080E20895CF93C82F88E70E94F31A80E0E3
:103710000E94221B8C2F0E94221B0E94181BCF91FB
:103720000895CF93C82F88E70E94F31A80E40E947F
:10373000221B8C2F0E94221B0E94181BCF910895E0
:10374000CF93C82F81E890E00E94821B8C2F90E0DD
:103750000E94821BC093F706CF910895BF92CF922B
:10376000DF92EF92FF920F931F93CF93DF93C82FB7
:1037700088E70E94F31A80E40E94221BD0E07E01B9
:10378000EE0CFF1CEE0CFF1CEC0EFD1E00E010E02A
:10379000C70189569C4F7C01D1E0B12C0CC091959A
:1037A0009E278D2D8C2B892B0E94221B0F5F1F4F74
:1037B00005301105D9F0F701E00FF11FE491C09039
:1037C000F6068D2F9091F506913009F08B2DC82FBC
:1037D000C795CC27C795DD2E8091F406813009F07E
:1037E000DB2C9D2FC110DBCF9B2DD9CF81E0C812E0
:1037F00080E081958C2B8D290E94221B0E94181B32
:10380000DF91CF911F910F91FF90EF90DF90CF90BC
:10381000BF900895CF93DF93C82FD92F888181154A
:1038200031F021960E94AE1B89918111FBCFDF916F
:10383000CF91089581E09091F606911180E08093F8
:10384000F606089581E09091F506911180E080934D
:10385000F506089581E09091F406911180E080933F
:10386000F4060895CF93DF93C82F862F90E08055FC
:103870009F4F0E94821BC695C695C695D0E0CC0F7F
:10388000DD1FCC0FDD1FCC0FDD1F209106018C2F1B
:1038900088709927820F911D0E94821BD595C7952C
:1038A000D595C795D595C795D595C795CE01409621
:1038B0000E94821BDF91CF9108951F93CF93DF93D6
:1038C00010E0612F80E00E94321CC4E8D0E080E06C
:1038D0000E94911B21972097D1F71F5F183089F71D
:1038E0000E94181BDF91CF911F91089581EA90E00B
:1038F0000E94821B88EC90E00E94821B0E945D1C4B
:10390000089580EA90E00E94821B80EC90E00E9483
:10391000821B0E945D1C08952FED82E399E22150E5
:1039200080409040E1F700C000000E94E51A8EEA56
:1039300090E00E94821B85ED90E00E94821B80E84F
:1039400090E00E94821B88EA90E00E94821B8FE335
:1039500090E00E94821B83ED90E00E94821B80E039
:1039600090E00E94821B80E490E00E94821B8DE820
:1039700090E00E94821B84E190E00E94821B80E222
:1039800090E00E94821B80E090E00E94821B80EA0F
:1039900090E00E94821B88EC90E00E94821B8AEDDE
:1039A00090E00E94821B82E190E00E94821B81E8ED
:1039B00090E00E94821B8FEC90E00E94821B89EDB8
:1039C00090E00E94821B81EF90E00E94821B8BEDB1
:1039D00090E00E94821B80E490E00E94821B84EAB7
:1039E00090E00E94821B86EA90E00E94821B8EE299
:1039F00090E00E94821B8FEA90E00E94821B8FEC75
:103A00008093F7068093070182E08093060110926D
:103A1000F6061092F5061092F4060E94811C089595
:103A20000E948C1C08950E945D1C08950E940A1C2F
:103A30000895CF93DF93CDB7DEB72A970FB6F894EA
:103A4000DEBF0FBECDBF4AE0BE016F5F7F4F0E9459
:103A50007D1ECE0101960E940A1C2A960FB6F8948C
:103A6000DEBF0FBECDBFDF91CF910895CF93DF931F
:103A7000CDB7DEB72A970FB6F894DEBF0FBECDBF25
:103A80002AE0AE014F5F5F4F0E94881ECE01019673
:103A90000E940A1C2A960FB6F894DEBF0FBECDBF57
:103AA000DF91CF910895CF93DF93E82FF92FEF01A6
:103AB00021968491811539F00E94AE1BFE018491FC
:103AC00021968111F9CFDF91CF9108959F92AF9206
:103AD000BF92CF92DF92EF92FF920F931F93CF93FB
:103AE000DF93E82EF92E8701000F111F0E0D1F1D09
:103AF000000F111F000F111FC8018D519C4F6C0149
:103B000001511C4FA12CD1E01FC09A2D23C08195DB
:103B100089279D2F2091F506213009F09A2DC92F74
:103B2000C795CC27C795BD2E9091F406913009F02A
:103B3000BA2C9B2D9C2B892B0E94911BFFEFCF1A37
:103B4000DF0AC016D10669F09FEFE916F104E9F229
:103B5000F60194919090F6068D2F9110D8CF8A2D72
:103B6000D6CF81E0981280E081958C2B8B290E9422
:103B7000911BDF91CF911F910F91FF90EF90DF90FC
:103B8000CF90BF90AF909F9008950E941A1C089507
:103B90000E94221C08950E942A1C0895FF920F93F0
:103BA0001F93CF93DF930BEB12E0F12C6F2D89E184
:103BB0000E94321CE801CA54D109FE0184910E947E
:103BC000911B2196C017D107C1F7F394065B1F4FD5
:103BD000F5E0FF12EBCFDF91CF911F910F91FF9096
:103BE0000895AA1BBB1B51E107C0AA1FBB1FA61744
:103BF000B70710F0A61BB70B881F991F5A95A9F796
:103C000080959095BC01CD010895A1E21A2EAA1BC2
:103C1000BB1BFD010DC0AA1FBB1FEE1FFF1FA2177C
:103C2000B307E407F50720F0A21BB30BE40BF50B79
:103C3000661F771F881F991F1A9469F76095709502
:103C4000809590959B01AC01BD01CF010895EE0FC9
:103C5000FF1F0590F491E02D0994A29FB001B39F3E
:103C6000C001A39F700D811D1124911DB29F700D85
:103C7000811D1124911D08950E942D1EA59F900D58
:103C8000B49F900DA49F800D911D11240895FB01F8
:103C9000DC0105900D920020E1F70895FB01DC01A5
:103CA0004150504030F08D910590801919F400205A
:103CB000B9F7881B990B0895FB01DC0104C08D91B5
:103CC0000190801921F441505040C8F7881B990B8E
:103CD0000895DC01FB014150504058F049F001903B
:103CE0000D920020C1F7E61BF70B3197CF01089525
:103CF0001C9201900020E9F7F6CFBB274A3031F43F
:103D0000992322F4BDE2909581959F4F0C94BA1EA1
:103D1000BB272A3051F4992342F4BDE29095809557
:103D2000709561957F4F8F4F9F4F0C94981EBB27C6
:103D3000FA01A62F6217710581059105330B30FB3F
:103D400066F0AA27660F771F881F991FAA1FA21760
:103D500010F0A21B63953850A9F7A05DAA3308F0B4
:103D6000A95DA19336F7B111B1931082CA010C94E9
:103D7000D31EBB27FB015527AA27880F991FAA1F0F
:103D8000A41710F0A41B83955051B9F7A05DAA3376
:103D900008F0A95DA193009779F7B111B193119241
:103DA000CB010C94D31EDC01FC01672F71917723AA
:103DB000E1F7329704C07C916D9370836291AE17E6
:103DC000BF07C8F30895F999FECF92BD81BDF89A57
:103DD000992780B50895262FF999FECF1FBA92BD75
:103DE00081BD20BD0FB6F894FA9AF99A0FBE0196DC
:103DF0000895F894FFCFE306EC06F106F606FB06FD
:103E0000000705074A07530758075D07620767075A
:023E10006C073D
:063E1200FFFFFE2000008E
:00000001FF
